{
    "_format": "hh-sol-artifact-1",
    "contractName": "Faucet",
    "sourceName": "contracts/Faucet.sol",
    "abi": [
        {
            "inputs": [],
            "stateMutability": "nonpayable",
            "type": "constructor"
        },
        {
            "inputs": [
                {
                    "internalType": "address",
                    "name": "owner",
                    "type": "address"
                }
            ],
            "name": "OwnableInvalidOwner",
            "type": "error"
        },
        {
            "inputs": [
                {
                    "internalType": "address",
                    "name": "account",
                    "type": "address"
                }
            ],
            "name": "OwnableUnauthorizedAccount",
            "type": "error"
        },
        {
            "anonymous": false,
            "inputs": [
                {
                    "indexed": false,
                    "internalType": "uint256",
                    "name": "amount",
                    "type": "uint256"
                }
            ],
            "name": "NewDeposited",
            "type": "event"
        },
        {
            "anonymous": false,
            "inputs": [
                {
                    "indexed": false,
                    "internalType": "uint256",
                    "name": "amount",
                    "type": "uint256"
                }
            ],
            "name": "NewRequest",
            "type": "event"
        },
        {
            "anonymous": false,
            "inputs": [
                {
                    "indexed": true,
                    "internalType": "address",
                    "name": "previousOwner",
                    "type": "address"
                },
                {
                    "indexed": true,
                    "internalType": "address",
                    "name": "newOwner",
                    "type": "address"
                }
            ],
            "name": "OwnershipTransferred",
            "type": "event"
        },
        {
            "anonymous": false,
            "inputs": [
                {
                    "indexed": false,
                    "internalType": "uint256",
                    "name": "amount",
                    "type": "uint256"
                }
            ],
            "name": "Withdrawn",
            "type": "event"
        },
        {
            "inputs": [],
            "name": "deposit",
            "outputs": [],
            "stateMutability": "payable",
            "type": "function"
        },
        {
            "inputs": [],
            "name": "faucetAmount",
            "outputs": [
                {
                    "internalType": "uint256",
                    "name": "",
                    "type": "uint256"
                }
            ],
            "stateMutability": "view",
            "type": "function"
        },
        {
            "inputs": [],
            "name": "faucetCooldown",
            "outputs": [
                {
                    "internalType": "uint256",
                    "name": "",
                    "type": "uint256"
                }
            ],
            "stateMutability": "view",
            "type": "function"
        },
        {
            "inputs": [],
            "name": "owner",
            "outputs": [
                {
                    "internalType": "address",
                    "name": "",
                    "type": "address"
                }
            ],
            "stateMutability": "view",
            "type": "function"
        },
        {
            "inputs": [],
            "name": "renounceOwnership",
            "outputs": [],
            "stateMutability": "nonpayable",
            "type": "function"
        },
        {
            "inputs": [
                {
                    "internalType": "address",
                    "name": "to",
                    "type": "address"
                }
            ],
            "name": "request",
            "outputs": [],
            "stateMutability": "nonpayable",
            "type": "function"
        },
        {
            "inputs": [
                {
                    "internalType": "address",
                    "name": "newOwner",
                    "type": "address"
                }
            ],
            "name": "transferOwnership",
            "outputs": [],
            "stateMutability": "nonpayable",
            "type": "function"
        },
        {
            "inputs": [],
            "name": "withdraw",
            "outputs": [],
            "stateMutability": "payable",
            "type": "function"
        },
        {
            "stateMutability": "payable",
            "type": "receive"
        }
    ],
    "bytecode": "0x608060405261070860025534801561001657600080fd5b5033600073ffffffffffffffffffffffffffffffffffffffff168173ffffffffffffffffffffffffffffffffffffffff160361008a5760006040517f1e4fbdf700000000000000000000000000000000000000000000000000000000815260040161008191906101b3565b60405180910390fd5b610099816100ae60201b60201c565b50674563918244f400006001819055506101ce565b60008060009054906101000a900473ffffffffffffffffffffffffffffffffffffffff169050816000806101000a81548173ffffffffffffffffffffffffffffffffffffffff021916908373ffffffffffffffffffffffffffffffffffffffff1602179055508173ffffffffffffffffffffffffffffffffffffffff168173ffffffffffffffffffffffffffffffffffffffff167f8be0079c531659141344cd1fd0a4f28419497f9722a3daafe3b4186f6b6457e060405160405180910390a35050565b600073ffffffffffffffffffffffffffffffffffffffff82169050919050565b600061019d82610172565b9050919050565b6101ad81610192565b82525050565b60006020820190506101c860008301846101a4565b92915050565b610834806101dd6000396000f3fe60806040526004361061007f5760003560e01c80638da5cb5b1161004e5780638da5cb5b146101005780639c2814301461012b578063d0e30db014610156578063f2fde38b1461016057610086565b806327c78c421461008b5780633ccfd60b146100b4578063715018a6146100be5780637e36320b146100d557610086565b3661008657005b600080fd5b34801561009757600080fd5b506100b260048036038101906100ad91906105db565b610189565b005b6100bc6102f5565b005b3480156100ca57600080fd5b506100d361034c565b005b3480156100e157600080fd5b506100ea610360565b6040516100f79190610621565b60405180910390f35b34801561010c57600080fd5b50610115610366565b604051610122919061064b565b60405180910390f35b34801561013757600080fd5b5061014061038f565b60405161014d9190610621565b60405180910390f35b61015e610395565b005b34801561016c57600080fd5b50610187600480360381019061018291906105db565b61039f565b005b610191610425565b600254600360003373ffffffffffffffffffffffffffffffffffffffff1673ffffffffffffffffffffffffffffffffffffffff168152602001908152602001600020546101de9190610695565b421015610220576040517f08c379a00000000000000000000000000000000000000000000000000000000081526004016102179061074c565b60405180910390fd5b600154471015610265576040517f08c379a000000000000000000000000000000000000000000000000000000000815260040161025c906107de565b60405180910390fd5b42600360003373ffffffffffffffffffffffffffffffffffffffff1673ffffffffffffffffffffffffffffffffffffffff168152602001908152602001600020819055508073ffffffffffffffffffffffffffffffffffffffff166108fc6001549081150290604051600060405180830381858888f193505050501580156102f1573d6000803e3d6000fd5b5050565b6102fd610425565b60004790503373ffffffffffffffffffffffffffffffffffffffff166108fc829081150290604051600060405180830381858888f19350505050158015610348573d6000803e3d6000fd5b5050565b610354610425565b61035e60006104ac565b565b60025481565b60008060009054906101000a900473ffffffffffffffffffffffffffffffffffffffff16905090565b60015481565b61039d610425565b565b6103a7610425565b600073ffffffffffffffffffffffffffffffffffffffff168173ffffffffffffffffffffffffffffffffffffffff16036104195760006040517f1e4fbdf7000000000000000000000000000000000000000000000000000000008152600401610410919061064b565b60405180910390fd5b610422816104ac565b50565b61042d610570565b73ffffffffffffffffffffffffffffffffffffffff1661044b610366565b73ffffffffffffffffffffffffffffffffffffffff16146104aa5761046e610570565b6040517f118cdaa70000000000000000000000000000000000000000000000000000000081526004016104a1919061064b565b60405180910390fd5b565b60008060009054906101000a900473ffffffffffffffffffffffffffffffffffffffff169050816000806101000a81548173ffffffffffffffffffffffffffffffffffffffff021916908373ffffffffffffffffffffffffffffffffffffffff1602179055508173ffffffffffffffffffffffffffffffffffffffff168173ffffffffffffffffffffffffffffffffffffffff167f8be0079c531659141344cd1fd0a4f28419497f9722a3daafe3b4186f6b6457e060405160405180910390a35050565b600033905090565b600080fd5b600073ffffffffffffffffffffffffffffffffffffffff82169050919050565b60006105a88261057d565b9050919050565b6105b88161059d565b81146105c357600080fd5b50565b6000813590506105d5816105af565b92915050565b6000602082840312156105f1576105f0610578565b5b60006105ff848285016105c6565b91505092915050565b6000819050919050565b61061b81610608565b82525050565b60006020820190506106366000830184610612565b92915050565b6106458161059d565b82525050565b6000602082019050610660600083018461063c565b92915050565b7f4e487b7100000000000000000000000000000000000000000000000000000000600052601160045260246000fd5b60006106a082610608565b91506106ab83610608565b92508282019050808211156106c3576106c2610666565b5b92915050565b600082825260208201905092915050565b7f436f6f6c646f776e3a20506c656173652077616974206265666f72652072657160008201527f75657374696e6720616761696e2e000000000000000000000000000000000000602082015250565b6000610736602e836106c9565b9150610741826106da565b604082019050919050565b6000602082019050818103600083015261076581610729565b9050919050565b7f4661756365743a20496e73756666696369656e742062616c616e636520696e2060008201527f6661756365742e00000000000000000000000000000000000000000000000000602082015250565b60006107c86027836106c9565b91506107d38261076c565b604082019050919050565b600060208201905081810360008301526107f7816107bb565b905091905056fea264697066735822122073aae8c5fd467bb34a20ff62cc420d534ca0c2782f0012ea561f9c5678f6b9d364736f6c634300081b0033",
    "linkReferences": {},
    "deployedLinkReferences": {}
}