{
    "_format": "hh-sol-artifact-1",
    "contractName": "Faucet",
    "sourceName": "contracts/Faucet.sol",
    "abi": [
        {
            "inputs": [],
            "stateMutability": "nonpayable",
            "type": "constructor"
        },
        {
            "inputs": [
                {
                    "internalType": "address",
                    "name": "owner",
                    "type": "address"
                }
            ],
            "name": "OwnableInvalidOwner",
            "type": "error"
        },
        {
            "inputs": [
                {
                    "internalType": "address",
                    "name": "account",
                    "type": "address"
                }
            ],
            "name": "OwnableUnauthorizedAccount",
            "type": "error"
        },
        {
            "anonymous": false,
            "inputs": [
                {
                    "indexed": false,
                    "internalType": "uint256",
                    "name": "amount",
                    "type": "uint256"
                }
            ],
            "name": "NewDeposited",
            "type": "event"
        },
        {
            "anonymous": false,
            "inputs": [
                {
                    "indexed": false,
                    "internalType": "uint256",
                    "name": "amount",
                    "type": "uint256"
                }
            ],
            "name": "NewRequest",
            "type": "event"
        },
        {
            "anonymous": false,
            "inputs": [
                {
                    "indexed": true,
                    "internalType": "address",
                    "name": "previousOwner",
                    "type": "address"
                },
                {
                    "indexed": true,
                    "internalType": "address",
                    "name": "newOwner",
                    "type": "address"
                }
            ],
            "name": "OwnershipTransferred",
            "type": "event"
        },
        {
            "anonymous": false,
            "inputs": [
                {
                    "indexed": false,
                    "internalType": "uint256",
                    "name": "amount",
                    "type": "uint256"
                }
            ],
            "name": "Withdrawn",
            "type": "event"
        },
        {
            "inputs": [],
            "name": "deposit",
            "outputs": [],
            "stateMutability": "payable",
            "type": "function"
        },
        {
            "inputs": [],
            "name": "faucetAmount",
            "outputs": [
                {
                    "internalType": "uint256",
                    "name": "",
                    "type": "uint256"
                }
            ],
            "stateMutability": "view",
            "type": "function"
        },
        {
            "inputs": [],
            "name": "faucetCooldown",
            "outputs": [
                {
                    "internalType": "uint256",
                    "name": "",
                    "type": "uint256"
                }
            ],
            "stateMutability": "view",
            "type": "function"
        },
        {
            "inputs": [],
            "name": "owner",
            "outputs": [
                {
                    "internalType": "address",
                    "name": "",
                    "type": "address"
                }
            ],
            "stateMutability": "view",
            "type": "function"
        },
        {
            "inputs": [],
            "name": "renounceOwnership",
            "outputs": [],
            "stateMutability": "nonpayable",
            "type": "function"
        },
        {
            "inputs": [
                {
                    "internalType": "address",
                    "name": "to",
                    "type": "address"
                }
            ],
            "name": "request",
            "outputs": [],
            "stateMutability": "nonpayable",
            "type": "function"
        },
        {
            "inputs": [
                {
                    "internalType": "uint256",
                    "name": "amount",
                    "type": "uint256"
                }
            ],
            "name": "setAmount",
            "outputs": [],
            "stateMutability": "nonpayable",
            "type": "function"
        },
        {
            "inputs": [
                {
                    "internalType": "uint256",
                    "name": "cooldown",
                    "type": "uint256"
                }
            ],
            "name": "setCooldown",
            "outputs": [],
            "stateMutability": "nonpayable",
            "type": "function"
        },
        {
            "inputs": [
                {
                    "internalType": "address",
                    "name": "newOwner",
                    "type": "address"
                }
            ],
            "name": "transferOwnership",
            "outputs": [],
            "stateMutability": "nonpayable",
            "type": "function"
        },
        {
            "inputs": [],
            "name": "withdraw",
            "outputs": [],
            "stateMutability": "payable",
            "type": "function"
        },
        {
            "stateMutability": "payable",
            "type": "receive"
        }
    ],
    "bytecode": "0x608060405261070860025534801561001657600080fd5b5033600073ffffffffffffffffffffffffffffffffffffffff168173ffffffffffffffffffffffffffffffffffffffff160361008a5760006040517f1e4fbdf700000000000000000000000000000000000000000000000000000000815260040161008191906101b3565b60405180910390fd5b610099816100ae60201b60201c565b50674563918244f400006001819055506101ce565b60008060009054906101000a900473ffffffffffffffffffffffffffffffffffffffff169050816000806101000a81548173ffffffffffffffffffffffffffffffffffffffff021916908373ffffffffffffffffffffffffffffffffffffffff1602179055508173ffffffffffffffffffffffffffffffffffffffff168173ffffffffffffffffffffffffffffffffffffffff167f8be0079c531659141344cd1fd0a4f28419497f9722a3daafe3b4186f6b6457e060405160405180910390a35050565b600073ffffffffffffffffffffffffffffffffffffffff82169050919050565b600061019d82610172565b9050919050565b6101ad81610192565b82525050565b60006020820190506101c860008301846101a4565b92915050565b610919806101dd6000396000f3fe6080604052600436106100955760003560e01c80637e36320b116100595780637e36320b1461013d5780638da5cb5b146101685780639c28143014610193578063d0e30db0146101be578063f2fde38b146101c85761009c565b8063271f88b4146100a157806327c78c42146100ca5780633ccfd60b146100f35780634fc3f41a146100fd578063715018a6146101265761009c565b3661009c57005b600080fd5b3480156100ad57600080fd5b506100c860048036038101906100c3919061063f565b6101f1565b005b3480156100d657600080fd5b506100f160048036038101906100ec91906106ca565b610203565b005b6100fb61036f565b005b34801561010957600080fd5b50610124600480360381019061011f919061063f565b6103c6565b005b34801561013257600080fd5b5061013b6103d8565b005b34801561014957600080fd5b506101526103ec565b60405161015f9190610706565b60405180910390f35b34801561017457600080fd5b5061017d6103f2565b60405161018a9190610730565b60405180910390f35b34801561019f57600080fd5b506101a861041b565b6040516101b59190610706565b60405180910390f35b6101c6610421565b005b3480156101d457600080fd5b506101ef60048036038101906101ea91906106ca565b61042b565b005b6101f96104b1565b8060018190555050565b61020b6104b1565b600254600360003373ffffffffffffffffffffffffffffffffffffffff1673ffffffffffffffffffffffffffffffffffffffff16815260200190815260200160002054610258919061077a565b42101561029a576040517f08c379a000000000000000000000000000000000000000000000000000000000815260040161029190610831565b60405180910390fd5b6001544710156102df576040517f08c379a00000000000000000000000000000000000000000000000000000000081526004016102d6906108c3565b60405180910390fd5b42600360003373ffffffffffffffffffffffffffffffffffffffff1673ffffffffffffffffffffffffffffffffffffffff168152602001908152602001600020819055508073ffffffffffffffffffffffffffffffffffffffff166108fc6001549081150290604051600060405180830381858888f1935050505015801561036b573d6000803e3d6000fd5b5050565b6103776104b1565b60004790503373ffffffffffffffffffffffffffffffffffffffff166108fc829081150290604051600060405180830381858888f193505050501580156103c2573d6000803e3d6000fd5b5050565b6103ce6104b1565b8060028190555050565b6103e06104b1565b6103ea6000610538565b565b60025481565b60008060009054906101000a900473ffffffffffffffffffffffffffffffffffffffff16905090565b60015481565b6104296104b1565b565b6104336104b1565b600073ffffffffffffffffffffffffffffffffffffffff168173ffffffffffffffffffffffffffffffffffffffff16036104a55760006040517f1e4fbdf700000000000000000000000000000000000000000000000000000000815260040161049c9190610730565b60405180910390fd5b6104ae81610538565b50565b6104b96105fc565b73ffffffffffffffffffffffffffffffffffffffff166104d76103f2565b73ffffffffffffffffffffffffffffffffffffffff1614610536576104fa6105fc565b6040517f118cdaa700000000000000000000000000000000000000000000000000000000815260040161052d9190610730565b60405180910390fd5b565b60008060009054906101000a900473ffffffffffffffffffffffffffffffffffffffff169050816000806101000a81548173ffffffffffffffffffffffffffffffffffffffff021916908373ffffffffffffffffffffffffffffffffffffffff1602179055508173ffffffffffffffffffffffffffffffffffffffff168173ffffffffffffffffffffffffffffffffffffffff167f8be0079c531659141344cd1fd0a4f28419497f9722a3daafe3b4186f6b6457e060405160405180910390a35050565b600033905090565b600080fd5b6000819050919050565b61061c81610609565b811461062757600080fd5b50565b60008135905061063981610613565b92915050565b60006020828403121561065557610654610604565b5b60006106638482850161062a565b91505092915050565b600073ffffffffffffffffffffffffffffffffffffffff82169050919050565b60006106978261066c565b9050919050565b6106a78161068c565b81146106b257600080fd5b50565b6000813590506106c48161069e565b92915050565b6000602082840312156106e0576106df610604565b5b60006106ee848285016106b5565b91505092915050565b61070081610609565b82525050565b600060208201905061071b60008301846106f7565b92915050565b61072a8161068c565b82525050565b60006020820190506107456000830184610721565b92915050565b7f4e487b7100000000000000000000000000000000000000000000000000000000600052601160045260246000fd5b600061078582610609565b915061079083610609565b92508282019050808211156107a8576107a761074b565b5b92915050565b600082825260208201905092915050565b7f436f6f6c646f776e3a20506c656173652077616974206265666f72652072657160008201527f75657374696e6720616761696e2e000000000000000000000000000000000000602082015250565b600061081b602e836107ae565b9150610826826107bf565b604082019050919050565b6000602082019050818103600083015261084a8161080e565b9050919050565b7f4661756365743a20496e73756666696369656e742062616c616e636520696e2060008201527f6661756365742e00000000000000000000000000000000000000000000000000602082015250565b60006108ad6027836107ae565b91506108b882610851565b604082019050919050565b600060208201905081810360008301526108dc816108a0565b905091905056fea2646970667358221220b9f851a671807a02ce84aef31abd2e32b2036b240a76bc057b892353eb7e50e564736f6c634300081b0033",
    "linkReferences": {},
    "deployedLinkReferences": {}
}